:400000000080002011000000190F0000190F000010B500F0A1FFC04610B51222294B1A60302001F0DFF9284A284B1A600024284B1C60284B284A1A602849294A1160294ACB
:400040001A6080214900284A1160284A1A60C0218900274A1160274A1A60E0210901264A1160264A1A60AD214902254A1160254A1A60C0214901244A1160244A1A608222C8
:400080001206234B1A60234A234B1A60C022234B1A607F3A224B1A600132224B1A600132214B1A600232214B1A60013A204B1A602049082001F0BAF8082001F0A1F81E4BC5
:4000C0001C6010BD300010400600008004010B40000301400000014040FF0080007F1A0600050140C0FF00800403014041FF00800803014042FF00800C03014043FF0080D2
:400100001403014045FF00801003014044FF008008010B404902040000010B4058010140500101402C010140280101401401014010010140611600000C020B4010B572B634
:4001400001223E4B1A7000240FE03D486200131959000B00411889881A5AC31858880004104300F0A5FE0134E4B2012CEDD934490C3134485C3000F081FE334A334B1A60D8
:40018000334A344B1A60EE22334B1A60553A334B1A6099231B04324A1360324A1360324A1360324A1360324A1360324A1360324A324B1A600723324A1360324A13603249CF
:4001C0000B783C22934314221343DBB20B702F4A117816230B43DBB2137002232C4A13602C492D4A11602D492D4A116080222D490A60FF202C4908602C482D490860012160
:400200002C4801602C4801602C482D49086004202C4908602C490A6003212C4A116021312B4A11602B4A13600D312B4A11602B4A1360FFF7F1FE00F051FE10BD1C700F40DF
:400240008430000084340000AA0000080000024008EE000000030240000502400006024000500F4010500F4020500F4040500F4050500F4070500F4004040444D8320F40C1
:400280002000104000800F4001700F4000700F4000000440B1ED040008000440819D180008010440180104400002044090244900080204401802044000030440860D0000A5
:4002C000080304400004044008040440000504400805044000060440080604401806044010B5064C2378002B07D1054B002B02D0044800E000BF0123237010BD5801002095
:400300000000000050300000084B10B5002B03D00749084800E000BF07480368002B00D110BD064B002BFBD09847F9E7000000005C01002050300000C00000200000000082
:4003400010B501F06BFE114A137801331370104B1A7801321A705A7801325A709A7801329A70DA780132D2B2DA70012A04D90022DA70084800F078FC044B1B78132B04D981
:4003800000220021002000F0F9F910BDA8010020740100208002002070B500F01BFA04000B4B1D7901F05EFA02002900200000F0E5F901F057FA03230340064C012202216C
:4003C000200000F0E1FB200000F056FA70BDC046740100208002002070B562B601F048FA01F006FE0E4C607101F066FD62790D4D0D49280002F008FA280001F0EDFD6179DF
:40040000042000F0EDF901F04DFE01F0B9FE01F019FA064801F0A6F9054801F011FF70BD740100201C02002054300000990300004103000070B5FFF7CFFF00F069F90228E5
:4004400028D004D800280AD0012817D027E003281CD0FF2823D1FD3800F04EF9EDE7114B06229C5E1D7901F0FDF902002900200000F084F9022000F03FF9DEE7094B986807
:4004800000F0FCF8022000F037F9D6E7022000F033F9D2E70449054800F0F8FBCDE700F021F9CAE774010020800200208C02002010B582B0040000F001FB0190019B002B52
:4004C00004D10022034B1A70E07800E0024802B010BDC04674010020FFFF000010B50022024B9A70002001F037FF10BD74010020024B00221A605A607047C04684010020A7
:400500000022014B1A727047840100200122014B1A72704784010020014B187A7047C04684010020014BD8607047C04684010020014B18617047C04684010020014B5861BC
:400540007047C04684010020014B98617047C04684010020014B18607047C046C4000020014B18687047C046C400002010B5034B04241C5701F0B6FD604310BDC4000020FA
:4005800010B500220021002000F0F8F8FFF7B0FFFFF7B6FFFFF7EAFF014B586010BDC046840100200122014B1A717047C4000020FF22014B1A717047C400002010B5064B4A
:4005C0009869002807D0FFF7D1FF044B5843024B996901F0EFFF10BD84010020407E050010B5034B9B695843024901F0E3FF10BD84010020407E0500F0B583B00500FFF710
:400600008BFF002830D0FFF7B1FF0190019C2C1B631D0A2B2AD9174B1A68A2181A60164B9B689A4201DD134A13605B42114A1268934201DD0F4A13600E4D6B68E71AE868BF
:4006400060430A2101F0B6FF060028692B6858430A2101F0AFFF3618686978430A2101F0A9FF6C60301802E0002000E0002003B0F0BDC04684010020C400002070B5FFF7B9
:40068000AFFFFFF7B9FF0400144BD861FFF768FF0500844209DD124B1C7801F0E3F8020028B2210000F06AF816E043429C420ADA0B4B1C7801F0D6F802006D4228B2210096
:4006C00000F05CF808E0064B1D7801F0CBF8020020B2290000F052F870BDC046840100207801002010B5FFF703FF024BFF221A705A7010BDD0000020014B58707047C0467F
:40070000D0000020014B18707047C046D0000020014B58787047C046D0000020014B18787047C046D0000020024A117804230B4313707047A6010020024A117802230B4363
:4007400013707047A6010020024A117801230B4313707047A6010020024A117808230B4313707047A6010020034B18780F3843425841C0B27047C046A601002010B50400DF
:400780000020134B1870002C0CDAD30701D5002908D0002000F0B6FF0D4B5C60604200F0FFFF14E0002C0CDD930701D5002908D0012000F0A7FF064B5C60200000F0F0FFCA
:4007C00005E00022024B5A60002000F0E9FF10BDA8010020014B0420185E7047A8010020F8B504000D0001F08BFA0F2020401A4E30603F212940194B1960194C0025257077
:40080000800108434005E060164FA760164B1B686360200001F03EF901232370E560A760124B1B686360200001F034F9022323703368DB06FC22D2041343E360A7600C4B09
:400840001B686360200001F025F901F01FF809491D2000F0EBFCF8BD98020020AC0200209C020020FFFF1F80A0002F40C0002F40E0002F406909000010B586B0002815D0F6
:40088000038802AC02930023237163718278A271E3716B460593C11C0822684601F0A2FF200001F043FA002802D102E0022000E0012006B010BDC046014B18787047C0467E
:4008C000AC020020014B18787047C04698020020104B1878C0B2002819D15A78D2B29B78DBB29A4205D20B4A93785078181AC0B20EE0084B5A78D2B29B78DBB29A4207D900
:40090000044A93785078181A1030C0B200E010207047C046B0010020124A93780133DBB293709378DBB20F2B02D900220D4B9A700C4B1B78002B0BD00A4A53780133DBB2E8
:4009400053705378DBB20F2B02D90022054B5A70044A537891785B1A59424B41DBB213707047C046B001002070B580225201444B1A60444B1B68DA0706D49A0706D45A07E3
:4009800006D41B0706D406E0002404E0012402E0022400E003243C4B9A78D2B264013B4B9C4664442368DB0202D46168490D02E06168C90889B2364B500082189000C1528B
:4009C000314A9178C9B22068000C0F2528404D0069188D005D19A8709178C9B2A5682D0E4800411888001818C5709178C9B2A068000CC0B24D0069188D005D192871917808
:400A0000C9B2A068000AC0B24D0069188D005D1968719178C9B2A568EDB2480041188800181885719178C9B2E5682D0E4800411888001818C5719178C9B2E068000CC0B2A9
:400A40004D0069188D005D1928729178C9B2E068000AC0B24D0069188D005D1968729278D2B2E068C0B251008A1891005B189872FFF752FF226801231343236070BDC046CE
:400A800000002F4008002F40B0010020A0002F40B002002010B5FFF71BFF00280BD0064A53780133DBB253705378DBB20F2B02D90022014B5A7010BDB001002010B582B0ED
:400AC000041E17D0FFF704FF6B46D87107331B78002B11D00A4B5B78DBB25A00D3189900084B59180C22200001F07CFEFFF7D2FF002002E0022000E0022002B010BDC0469F
:400B0000B0010020B002002070B504001E00012000F062F820800823A370E51CF621280000F068F82418E670421C0499280000F06DF870BD0079704710B50330022201214D
:400B400000F070F800B210BD10B503300522012100F068F810BDC04610B503300522012100F060F810BDC04610B503300522012100F058F810BDC04610B503300522012149
:400B800000F050F810BDC04670B504001D00002000F022F820800423A370E01C092100F029F82418E57070BD10B503300422012100F038F810BDC04603790220184070470B
:400BC000037901201840704710B503300222012100F028F880B210BD80028023DB0018408901403B194001433F200240114308007047C04610B504000170FFF763FE6070E7
:400C0000FFF75AFEA070032010BDC04610B50B0E8354531C0C14C454931C0C12C4540332815410BD70B50600002A09DD002909DB521A0132042A00DD0422002A05DC03E042
:400C4000042202E0042200E000220024002007E06318F55C531E1B1BDB009D4028430134A242F5DC70BDC04610B582B00400FFF7A5FC00900423012202212000FFF744FF7E
:400C80002000FFF7F9FD02B010BDC04670B505000E00FFF70DFC0400072868D00CD8042870D004D8002818D0032837D0C7E0052847D0062850D0C2E00D2800D1AAE005D84B
:400CC0000A2879D00C2800D181E0B8E0F02800D1A9E0F52800D1AEE0B1E02800FFF72AFF00280AD100220021FFF748FD0020FFF709FD0220FFF700FDB9E02800FFF71AFF33
:400D0000012808D1FFF73CFC0120FFF7FBFC0220FFF7F2FCABE0FFF7E5FCA8E0FFF7FEFC002807D1FFF7E8FC2800FFF705FF504B18809CE00320FFF7DFFC0120FFF7CEFB16
:400D400095E02800FFF708FFFFF7ECFBFFF7ECFC0220FFF7D1FC8AE02800FFF705FFFFF7E7FBFFF7E9FC0220FFF7C6FC7FE02800FFF702FFFFF7E2FBFFF7E6FC0220FFF7DF
:400D8000BBFC74E0FFF7CAFC01280ED1FFF7ECFC00280AD0FFF7BAFB2800FFF7D5FE354B18600120FFF7A8FC61E00320FFF7A4FC0120FFF793FB5AE02800FFF7F5FEFFF755
:400DC000C3FBFFF7C9FC0220FFF796FC4FE0FFF7A5FC012808D1002200210020FFF7CEFCFFF786FBFFF78CFB2800FFF7E9FE002802D0002001F08CF92800FFF7DDFE00283B
:400E000002D0FFF7D5FB01E0FFF7CCFB0220FFF773FC2CE02800FFF7D7FEFFF79BFB0220FFF76AFC23E0002200210020FFF7A6FCFFF758FC1BE03000FFF716FF17E0FFF781
:400E40006DFC012802D1FFF757FC0AE0FFF766FC002803D10230FFF74FFC02E00220FFF74BFC054B9C4202D00020FFF737FB70BD7A0100207C010020FFFF0000F0B500255D
:400E8000002711E0BB00C658F3B2FF22964308E06A008A181478A419527822700135013BDBB2002BF4D10137112FEBD9F0BDC04610B50A00002101F09EFC10BD064B1B680F
:400EC000002803D080221206134301E05B005B08014A13607047C04680033A4010B50323084A1360084A136080221206074B1A600122074B1A600022064B1A600120FFF7E2
:400F0000DDFF10BD300030403000314000003A4000033A40000E3F4010B501F037FC03680C2B00D1FEE7FEE710B50300084A1068C318084A9A1A802A02DC054A136005E07B
:400F400001F024FC0C2303600120404210BDC046D40000209003002070B50F4E0F4D13E029686B68AC68002202E001C901C30432A242FAD1E868002202E0002102C3043281
:400F80008242FAD11035013E002EE9D101F004FCFFF750FAFEE7C046010000001437000010B50E4A136801218B43136000230AE0032B03D89A000A49505800E0094899005E
:400FC000094A885001332F2BF2D9FFF7B7F8034A116801230B43136010BDC0460000104000000000190F000000000020074B1B78272B05D8064B1B78DBB2064A136004E086
:40100000054B1B78DBB2034A1360704702F3FF0F42F3FF0F20FF0B40C1F1FF0F00230AE0204A12683F210A401F49C95C8A4201D1033303E001332D2BF2D903231B4A12780E
:401040001B2A16D8302B05D1194B1B78DBB2194A136006E0182B04D1174B1B78DBB2154A136016490B681F229343173A13430B6016E0302B05D1124B1B78DBB20D4A1360F7
:4010800006E0182B04D10F4B1B78DBB2094A13600A4A13681F218B430B4909780B4313607047C0462CFF0B402835000002F3FF0F3FF3FF0F28FF0B403EF3FF0F34FF0B407D
:4010C000C3F1FF0FC2F1FF0FC0F1FF0F00230AE00D4A12683F210A400C49C95C8A4201D1033303E001332D2BF2D9032308490868084A02400A60084A944663441B78DBB2C6
:40110000064A13607047C0462CFF0B402835000000002240FFFFFFBF4DF3FF0F28FF0B40034B18688023DB05184000D0012070470000224010B50B4A136801218B431360D3
:40114000094B1A68094B1A60094A12685A60FFF765FFFFF74BFF074A116802230B43136010BDC04650000C4034FF0B40B401002020FF0B4024002C4030B500230AE0134AEF
:4011800012683F210A401249C95C8A4201D1033303E001332D2BF2D903230E490A68022082430A600C4C21681F2291430B4805682A400A4322604168094A1160094A9446B4
:4011C00063441B78DBB2084A136030BD2CFF0B402835000024002C4034FF0B40B401002020FF0B404DF3FF0F28FF0B40034B1B680220184000D001207047C04624002C400D
:401200001F2318401E3B8340014A13607047C04600E100E01F2318401E3B8340014A13607047C04680E100E001BE704770B504000D001F2802D90020FFF7F6FF1034A40089
:4012400080239B059C4664442068256070BDC04670B504000E00032902D90020FFF7E4FF1F2C02D90020FFF7DFFF03252540ED00063501F086F8A408A400074B9C466444C0
:4012800021680323AB4099430B003100A9401943216001F07AF870BD00E400E010B5040006E0084B586801F063F8074B9C46644480231B029C42F4D8024B9868604301F02D
:4012C00057F810BDD80000200080FFFF70B582B000F070F9002862D001F053F80500314A116801230B43136000230AE02E4A12683F210A402D49C95C8A4201D1033303E03D
:4013000001332D2BF2D903230021294A1160294A1268D20606D1274802681F318A4313390A430260244C2168244A1140244A5A438023DB019C466244D20B013A5205520D06
:401340000B001343A0225203134323601D4B1B680193302001F01CF81B4A13688021C9050B4313602668194B1E40002407E00120FFF794FF1034A30533430F4A1360EE2CEB
:40138000F5D90120FFF78AFFFF239B051E430A4B1E60019A0B4B1A60280000F0F6FF02B070BDC04650000C402CFF0B402835000028FF0B4034FF0B400800224000F800C0EB
:4013C00040420F003000104000002240FFFF3FC010B5034B1B7B584300F0CAFF10BDC046D8000020F0B55F4656464D464446F0B483B0040000F0C5FF0190FFF791FE0028E5
:4014000004D0FFF763FE01239A4601E000239A46FFF7ECFE002808D0182C01D0302C07D1FFF7AAFE01239B4604E000239B4601E000239B46E61E2D2E74D8464B1B78DBB2A4
:401440009C4208D8444B1B78DBB29946434B1B78DBB2984631E0424B1B78DBB29C4208D8404B1B78DBB299463F4B1B78DBB2984623E03E4B1B78DBB29C4208D83C4B1B7882
:40148000DBB299463B4B1B78DBB2984615E03A4B1B78DBB29C4208D8384B1B78DBB29946374B1B78DBB2984607E0364B1B78DBB29946354B1B78DBB29846344B9F5D2F2F24
:4014C00009D92A2C07D91922314B1A60052000F04FFF192503E02E4B1D683F231D40BD4206D92A4B9A5D2A4B1A60052000F040FF254B9C4664442378DBB2264A1360264B5F
:401500004A461A60254B42461A600520FFF760FFBD420AD21D4B9A5D1D4B1A60052000F027FF02E00020FFF77FFE5346012B01D1FFF7CCFE5B46012B01D1FFF7FBFD01986C
:4015400000F023FF03B03CBC90469946A246AB46F0BDC04640F3FF0F41F3FF0F42F3FF0F43F3FF0F44F3FF0F45F3FF0F46F3FF0F47F3FF0F48F3FF0F49F3FF0F4AF3FF0F6B
:401580004BF3FF0F4CF3FF0F4DF3FF0F283500002CFF0B4028FF0B401CFF0B4020FF0B40034B1868C0231B02184000D00120704700010B40034B1B68002B01DA012000E03D
:4015C000002070470000224010B500F0DAFE044A1368C02109020B43136000F0D6FE10BD00010B4010B500F0CCFE08490A68084B1A408024E40122430A600A681340802224
:40160000120213430B6000F0C0FE10BD00010B40FF3FFFFF70B5050000F0B3FE0400FFF7BFFF002803D0FFF7DDFF012100E0002108482840084A1568084B2B40184310604F
:401640001368012901D1FFF7BFFF200000F09DFE70BDC0460404040010020B40FBFBFBFF10B5244B1B685B0715D5234B5B685B070ED5224B596A042001401F4C62688A43F8
:4016800062605A6A82435A629B69002B00D098470420FFF7BFFF174B1B685B0518D5164B5B685B0510D5154B596A8022D2001140114842688A434260596A114A0A405A6254
:4016C000DB69002B00D098478020C000FFF7A2FF084B1B685B030CD5074B5B685B0304D5064B1B6A002B00D098478020C002FFF791FF10BD10020B40EC000020D4010020B1
:40170000FFFBFFFF04490A68D2B240239A438001184010430860704700010440014B58647047C0460000002010B5040000F029FE044A1168044B0B40A4031C43146000F00E
:4017400024FE10BD00E400E0FF3FFFFF0222014B1A60704700E100E00222014B1A60704780E100E010B50400FFF7F6FF2000FFF7D5FF0320FFF7D8FFFFF7E8FF10BDC046F8
:401780000004000C014B18607047C046080120400004000C014B18607047C046140120400004000C014B18607047C0460C01204070B504000D0000F0E4FDAC40024B1C606F
:4017C00000F0E3FD70BDC0460800204010B500F0D8FD064A116801230B43136000F0D5FD18210120FFF7E4FF10BDC04600002040014B18607047C0463801204010B50D4CE6
:401800008023DB042360236823600020FFF7B8FF236823600C22084B1A600120FFF7E8FF3122064B1A600648FFF7B2FF0020FFF7B7FF10BD000120402401204028012040A6
:40184000FF7F000010B5064B1B78002B04D1FFF7D5FF0122024B1A70FFF7B8FF10BDC046FC010020014B1878C0B2704765000F4010B500F086FD044A117810230B43DBB20A
:40188000137000F082FD10BD95000F40054B1A6801210A431A601B68194201D1012000E00020704704002F4010B50E4A0E4B1A60FFF7ECFF1D20FFF7A3FC0C4A1168012339
:4018C0000B431360F0231B0100E0013B002B03D0064A1268D207F8D5002B01D1012000E0002010BD0110000000002F4010002F4003B2002B0DDB094A1168094B0B4000044D
:40190000034313601268074B1340984203D0012002E0022000E000207047C04614002F40FFFF00800000FF7F002809D10C4B19680C4A0A401A601B68DB040CD501300DE06C
:40194000074B1A68802149010A431A601B680B4203D1012002E0002000E000207047C04614002F40FFEFFFFF70B5841EE4B20D2C35D88C1EE4B2052C03D9002B31D10129A7
:4019800031D1032A31D8904231D3914231D31C4D2C68240AE4B20F26B44320432E68194C3440000204432C602C686040F0242401204220D1002B00D002234901C9B2920077
:4019C000D2B2114319430E4A1368EE2083430B4313601368034099420FD0ED380EE002200CE002200AE0022008E0022006E0022004E0022002E0012000E0002070BDC04636
:401A000014002F40FFF0FFFF002809D10B4B1A6810218A431A601B6819420BD001300CE0064B1A6810210A431A601B68194203D1012002E0002000E00020704714002F4034
:401A4000002809D10B4B1A6801218A431A601B6819420BD001300CE0064B1A6801210A431A601B68194203D1012002E0002000E00020704714002F40054B18601B681B0418
:401A80001B0C984201D0012000E000207047C04604002F4010B503785B01204A944663441F4A41680A431A6003785B01634419681C4A11401C4A44682240914224D18268C7
:401AC0001A6103785B0163441A6981688A421DD1C2685A6103785B0163445A69C1688A4216D1012252429A6103785B0163449A6901320FD10022DA6103785B016344DB6960
:401B0000002B09D0012008E0012006E0012004E0012002E0012000E0002010BDA0002F40800080007F007F007FFF7FFF10B503781B01104A944663440F4A41680A431A6092
:401B400003781B01634419680C4A11400C4A4468224091420AD182685A6003781B0163445A6883689A4203D0012002E0012000E0002010BD20002F4008008000F7007F0031
:401B8000F7FF7FFF70B500240AE063001B199800104B1818FFF7CAFF002805D10134E4B2072CF2D9002500E00125002D0BD00FE0230108486030C018FFF76CFF002806D1E0
:401BC0000134E4B200E000240F2CF1D900E00125280070BD58350000002809D10C4B19680C4A0A401A601B689B040CD501300DE0074B1A68802189010A431A601B680B427E
:401C000003D1012002E0002000E000207047C04614002F40FFDFFFFF10B580221206344B1A60344A136801218B431360C8231B0200E0013B002B03D02E4A1268D207F8D404
:401C4000002B4AD01D20FFF7E5FA2B491D20FFF7EDFA03211D20FFF7FBFA1320FFF748FE00281AD1FFF760FE002818D1FFF7B4FF002816D10023012201210C30FFF774FE88
:401C8000002810D10130FFF7BFFE00280DD1FFF7D7FE00280BD001230AE0012308E0012306E0012304E0012302E0012300E00023002B14D1FFF766FF002812D10F48FFF747
:401CC000DBFE00280FD10B4B1A6807218A431A601B68194209D0013008E0012006E0012004E0012002E0012000E0002010BDC04600042F4010002F40291D000001100000A0
:401D000010B5084B1B78002B02D1FFF785FF00E00020002804D10122024B1A70FFF7C4FD10BDC046FD0100207047C046F8B54F464646C0B4040001200023984691E04C4BB4
:401D40001B6832041A427AD12379002B01D1002701E08027BF036379002B07D12B01454A94466344226852055A6009E080235B031F432B013F4A944663442268D2005A60AB
:401D8000A379072B03D81B041F43B94603E080231B031F43B946E379002B03D004234A461A43914600232AE0032B13D92801324A94466044026894465907CA1AD100383104
:401DC000FF228A4067469743E268D25C8A403A43026012E02801274A94466044826894465907CA1AD1001831FF228A4067469743E268D25C8A403A4382600133DBB2A27935
:401E0000934201D2072BCFD91D20FFF703FA2B01184A94466344194A4F4617431F60227A002A04D0196803220A431A6003E0196801220A431A601D20FFF7E2F90020760017
:401E4000F6B2002807D00135EDB201E001260025072D00D873E7002806D043460133DBB298464346022BF1D90CBC90469946F8BD08002F4020002F402C002F400800800052
:401E800010B50C20FFF7BCF910BDC04610B500F091F810BD10B500F01FF810BD10B5054A1368802109060B431360FFF7E9FFFFF7EDFF10BD0000274010B5064B1B78002B47
:401EC00004D1FFF7E7FF0122024B1A70FFF7E6FF10BDC0460002002070B51E4A1E4B1A6000241E4B1C601E4A1E4B1A601E4B1F4A136007211E4A11601E4A146006391E4ADA
:401F000011601E4A13601E4B1C6004251D4B1D600C20FFF77FF903210C20FFF799F91A490C20FFF783F9194B1C60194B1C60194B1C60194B1C60194B1D60194B1C601A682C
:401F4000184B1A80184B1C60184B1C60184B1C7070BDC0460B000002000027404000274001000A0048002740070000800003274004032740100327404400274000022740C2
:401F8000040227405000274029240000880E2740C80E2740480F2740080F2740C80F2740880F27400802002088030020700300208503002005490B68F0229343603A134355
:401FC0000B60034B1A88034B1A6070470006024008020020880F274070B50500002402E000F014FA0134285D0028F9D170BDC046014B1878C0B2704767000F40034A1178F9
:4020000080235B420B43DBB21370704775000F40014B18707047C04686000F40014B1878C0B2704766000F4010B50100014800F0D9F910BD24000F4010B5024800F0DCF982
:4020400010BDC04644000F4010B50100014800F0C9F910BD04000F4010B501E0FFF7ECFFFFF7DCFF0307F9D410BDC04610B50B4C2000FFF7D9FF2000FFF7E6FF00F081F9A8
:40208000074A117810230B43DBB2137000F07DF9FFF7E2FF0120FFF7BBFF10BD3F420F0096000F4010B5064B1B78002B04D1FFF7DDFF0122024B1A70FFF7A0FF10BDC04688
:4020C0000A02002010B50020FFF7A4F804490020FFF7ACF803210020FFF7BAF810BDC046B521000010B50020FFF794F800F0D2F8054B9C46604400B2044B1C6804190020E8
:40210000FFF77EF8200010BD0080FFFF0C02002010B504000020FFF77DF88020000200F0B3F8034B1C600020FFF76AF810BDC0460C020020024B18780F2318407047C046A2
:4021400060000F4007231843C0B2014B1870704780000F4010B50F20FFF7F4FFFFF7EAFF00F00FF9054A117810230B43DBB2137000F00BF90020FFF743F810BD90000F4051
:4021800010B500F0D9F88020000200F07DF80022064B1A60064B1B78002B04D1FFF792FF0122034B1A70FFF7D5FF10BD0C0200200B0200200C4B1B78DBB2DA0706D50B49C6
:4021C0000A680B48844662440A6007E09A0705D506490A680748844662440A605B0702D50022024B1A60704760000F400C020020FF7F00000080FFFF014B98647047C0463D
:402200000000002010B5040000F0BBF8044A1168044B0B40A4051C43146000F0B6F810BD00E400E0FFFF3FFF0422014B1A60704700E100E00422014B1A60704780E100E082
:4022400010B50400FFF7F6FF2000FFF7D5FF0320FFF7D8FFFFF7E8FF10BDC046034A117880235B420B43DBB21370704773000F40014B18707047C04683000F40014B1878F4
:40228000C0B2704763000F40014B18807047C04604100F40024B1B78024B188880B2704702000F4084100F40014B188880B2704784100F40014B18807047C04644100F4059
:4022C000014B18807047C04664100F4010B501E0FFF7EAFFFFF7D2FF4306F9D410BDC04610B5134B1A7807218A431A701A7804398A431A70FFF7EAFF802424022000FFF72C
:40230000D9FF2000FFF7C0FF0020FFF7B1FFFFF7B5FF2000FFF7D4FF00F033F8054A117810230B43DBB2137000F02FF810BDC04673000F4093000F4010B5064B1B78002BB1
:4023400004D1FFF7CDFF0122024B1A70FFF786FF10BDC0461002002004490A68D2B208239A43C0001840104308607047000004400230800803D00138FDD1C046C046C0468D
:402380007047EFF3108072B6704780F31088704770B50400FFF7F5FF0500102C05D8104A136803218B43136016E0202C07D80C490B6803229343023A13430B600CE0302CBF
:4023C00007D807490B6803229343013A13430B6002E00020FEF728FF2800FFF7D6FF70BD30001040CBB203700B0ADBB24370090CC9B281707047C0460378427812021A435D
:4024000083781B041A4310007047C046044B1B681F221340082BF9D0024B18607047C046080227404002274010B5144B1B68002B00D09847124B1B685B071DD5114B1B68C6
:402440000133112B00D100230F4A1268934205D10E4B1B6820220E4B1A7006E00B4A1268D2B20C49CA54074A13600B4B1B68DB06E4D10422094B1A6010BDC04604020020AD
:40248000CC0F2740880300207003002040032740850300207403002008032740C00F2740002243088B4274D303098B425FD3030A8B4244D3030B8B4228D3030C8B420DD3FC
:4024C000FF22090212BA030C8B4202D31212090265D0030B8B4219D300E0090AC30B8B4201D3CB03C01A5241830B8B4201D38B03C01A5241430B8B4201D34B03C01A524197
:40250000030B8B4201D30B03C01A5241C30A8B4201D3CB02C01A5241830A8B4201D38B02C01A5241430A8B4201D34B02C01A5241030A8B4201D30B02C01A5241CDD2C30966
:402540008B4201D3CB01C01A524183098B4201D38B01C01A524143098B4201D34B01C01A524103098B4201D30B01C01A5241C3088B4201D3CB00C01A524183088B4201D3BF
:402580008B00C01A524143088B4201D34B00C01A5241411A00D20146524110467047FFE701B5002000F0F0F802BDC0460029F7D076E7704703460B437FD4002243088B42EA
:4025C00074D303098B425FD3030A8B4244D3030B8B4228D3030C8B420DD3FF22090212BA030C8B4202D31212090265D0030B8B4219D300E0090AC30B8B4201D3CB03C01A28
:402600005241830B8B4201D38B03C01A5241430B8B4201D34B03C01A5241030B8B4201D30B03C01A5241C30A8B4201D3CB02C01A5241830A8B4201D38B02C01A5241430AEC
:402640008B4201D34B02C01A5241030A8B4201D30B02C01A5241CDD2C3098B4201D3CB01C01A524183098B4201D38B01C01A524143098B4201D34B01C01A524103098B42ED
:4026800001D30B01C01A5241C3088B4201D3CB00C01A524183088B4201D38B00C01A524143088B4201D34B00C01A5241411A00D201465241104670475DE0CA0F00D04942DC
:4026C000031000D34042534000229C4603098B422DD3030A8B4212D3FC22890112BA030A8B420CD3890192118B4208D3890192118B4204D389013AD0921100E08909C309FB
:402700008B4201D3CB01C01A524183098B4201D38B01C01A524143098B4201D34B01C01A524103098B4201D30B01C01A5241C3088B4201D3CB00C01A524183088B4201D3FD
:402740008B00C01A5241D9D243088B4201D34B00C01A5241411A00D20146634652415B10104601D34042002B00D54942704763465B1000D3404201B5002000F005F802BD1E
:402780000029F8D016E770477047C046014B18687047C046540100200E4B70B500251E000D4CE41AA410A54204D0AB00F35898470135F8E700F09CFF084B00251E00084CD3
:4027C000E41AA410A54204D0AB00F35898470135F8E770BDFC360000FC360000FC36000004370000002310B59A4203D0CC5CC4540133F9E710BD03008218934202D01970FF
:402800000133FAE7704700000EB410B59DB002A9029008610B48822488604861012040421FABC881084804CBA400006801938C8100F06EF80023029A13701DB010BC08BC51
:4028400003B01847FFFFFF7F54010020F0B58E6885B007000C00039201939E4243D890238A89DB001A423ED003250969236801985B1A029363695D43EB0F5D19029B6D1085
:4028800001331B18AB4200D91D00530510D52900380000F037FB061E14D0029A2169FFF7A1FFA289194B134080221343A38112E02A00380000F086FB061E0CD121693800C4
:4028C00000F0D4FA0C23402201203B60A38940421343A38117E0029B2661F61826606561019EED1AA560019BB34200D21E0032000399206800F0A5FA0020A3689B1BA3603B
:4029000023689E19266005B0F0BDC0467FFBFFFFF0B59FB0029005938B890F0016001B0610D50B69002B0DD1402100F0EBFA38603861002804D10C23029A01381360D8E082
:4029400040237B61002306AD6B6120336B761033AB7634002378002B03D1A31B049312D003E0252BF9D00134F4E7A31B320039000298FFF76BFF431C00D1B4E06A69049B74
:40298000944663446B612378002B00D1ABE00122002352426A6002A95432521801342B60EB60AB601370AB65534E21780522300000F03CFA002807D00123801B83402A68F6
:4029C000013413432B60EFE72B68DA0604D55322202102A8121811701A0704D553222B2102A81218117022782A2A03D0099B00200A210EE0059A111D12680591002A01DB03
:402A0000099204E05242EA60022213432B6001340BE02278303A092A04D84B4301349B180120F6E7002800D0099323782E2B1ED163782A2B0AD1059B02341A1D1B680592E4
:402A4000002B01DA01235B42079310E000230A201A0001346B6021783039092904D84243013452180123F6E7002B00D00792234E21780322300000F0D9F9002806D0402353
:402A8000801B83402A68013413432B60217806221B48661C297600F0C9F9002812D0194B002B06D10722059B073393430833059314E005AB00933A00134B2900029800E08B
:402AC00000BF07E005AB00933A000F4B2900029800F08AF80390039B013304D06B69039A9B186B6135E7BB890B985B0601D5012040421FB0F0BDC046BA360000C0360000B6
:402B0000C4360000000000004D280000F7B5170001938A680B6900900C00934200DA130022003B6043321278002A01D001333B6023689B0602D53B6802333B600625236859
:402B40001D401ED0230043331B785A1E9341226892061CD53020E1184331087021005A1C45310978A2184332023311700FE022000123193201990098089EB047431C0ED04B
:402B80000135E3683A689B1A9D42F0DBDAE72200019943320098089DA847431C02D10120404220E006232068E1683A6803400025042B03D18D1AEB43DB171D40A3682269DF
:402BC000934201DD9B1AED180027BD420AD0220001231A3201990098089EB047431CDED00137F2E70020FEBDF0B58BB006920A0043320793059004920A7E0C00109B6E2A7B
:402C000000D1ABE011D8632A22D009D8002A00D1B5E0582A00D0C5E045310A70814A4FE0642A1DD0692A1BD0BCE0732A00D1AAE009D86F2A29D0702A00D0B3E020220968CE
:402C40000A43226037E0752A1FD0782A33D0A9E00E001A684236111D196013683370A4E021681A68080606D4490604D5111D19600023D55E02E0111D19601568002D3BDA01
:402C80002D23049A6D42137036E021681A68080606D4490604D51568111D1960ADB202E0111D196015685F4B227E039308276F2A1DD00A271BE022007821453211705A4A22
:402CC00019680392081D226818600D68100602D4500600D5ADB2D30702D520231A4322601027002D03D1202322689A4322602300002243331A7002E00A274A4B0393636827
:402D0000A360002B09DB0422216891432160002D05D1049E002B11D07BE0002D79D0049E28003900FFF742FC039B013E5B5C280033703900FFF7B4FB051EF1D1082F09D191
:402D40002368DB0706D563682269934202DC3023013E3370049B9B1B23612BE009681A68080607D4490605D5111D19601368A28A1A8004E0111D1960136862691A6000238E
:402D8000049E236116E01A68111D1960166800216268300000F04AF8002801D0801B6060636803E0260042363270012323610023049A1370079B09AA00932100069B05988E
:402DC000FFF7A4FE431C02D10120404227E02369320006990598079DA847431CF4D0236800259B070FD4099BE068984217DA180015E022000123193206990598079EB0474D
:402E0000431CE1D00135E368099A9B1A9D42F0DBE9E72600039B42361B7833708EE70BB0F0BDC046CB360000DC360000C9B28218904204D003788B4202D00130F8E70020C2
:402E4000704710B5884202D98B18984201D3002305E09B1A013A08D3995C8154FAE7934203D0CC5CC4540133F9E710BD70B50500002944D00C1F2368002B00DAE418280053
:402E800000F0D8F81E4A13681100002B02D16360146031E0A3420DD92268A018834203D118685B688218226063600C6024E0A24203D813005A68002AF9D11E689819A0423F
:402EC0000BD12168711858181960824214D110685268411819605A600EE0A04202D90C232B6009E021686018824203D1106852684118216062605C60280000F09CF870BD4A
:402F000018020020032370B5CD1C9D43083506000C2D01D20C2501E0002D01DBA94202D90C23336048E0300000F084F8234B1C681A002100002913D00B685B1B0DD40B2B54
:402F400002D90B60CC181EE08C4202D1636813601AE04B6863600C0016E00C004968E9E7174C2368002B03D1300000F051F820602900300000F04CF8431C18D00323C41C9B
:402F80009C43A0420DD12560300000F054F8200007220B30231D9043C31A0ED05A42E2500BE0211A300000F033F8431CEBD10C233000336000F03FF8002070BD1802002035
:402FC00014020020F8B506000C001500002904D11100FFF797FF040018E0002A03D1FFF745FF2C0012E000F027F885420ED929003000FFF787FF071E07D021002A00FFF70B
:40300000F1FB21003000FFF731FF3C002000F8BD002370B5064C050008002360FDF784FF431C03D12368002B00D02B6070BDC0468C030020704770470B1F1A68101F002AE2
:4030400004DA891804390B68D0180438704700000000000044697020416464723A202578200D0A004279746525642025782020200000000049443A25782025782025780D3B
:403080000A00000000300F40000800400F400008800F836F8507860D047808050E04120414601501161818381C281E501F01210122032450262828182A602F023001310255
:4030C00032023301347836043E413F04540F5604580459045B045C115D105F01857F89FE8B018D968F68920193019401950E97F0980199C59B3AA401A5A3A75CA801AE0285
:40310000B1FFB603BF01D804D904DC01DF010004018003080A860B200C100F60109416081748180419401A481B181E021F4022012360274028022B402E082F1032403308AC
:403140003414360137183E243F6059415A045B206202800481018202C007C27FC4EECA49CCEACE70D60FD801040607010806180324053407350138204016410549FF4AFF46
:403180004BFF4DA04F015018580459045A045C115D015F016040628064406540668068406A806C406D206E808F039501980199089C08A30CA403A60CAC03AF01B002B101A3
:4031C000B208B302B401B504B604B708B822BE14BF41C042C105C503C6C4C72EC83DC9FFCAFFCBFFCDAFCE07CF01D018D280D40FD804D904DA04DB04DC11DD11DF05E040CB
:40320000E280E440E540E680E840EA80EC40ED20EE800510071008200A050E0410221620180419041A811B101E04210222182382240827082A8132183B803E08400441026C
:403240004780482049804FA050825101521559245A405B026214728078208521924A9380968497209A209D809F18A480A740B002C060C243C425CA09CC06CE48D015D238FF
:40328000D60FD806DE0405940604076009CF0B300E07113013C9140115FD160217021807199E1B601C0424012573260228072E082F0F31FF360F3F01405249FF4AFF4BFFA7
:4032C0004F015018580459045A045C015D015F016040624064406540668068806A806C806E80840C85078601880C8A02950897019807990C9B02A008A201A50CA60FA70195
:40330000A80BA90BAA04AB04AF0FB30FB40FC042C9FFCAFFCBFFCD83CE03CF01D018D280D604D804D904DA04DB04DC11DD11DF01E040E240E440E540E680E880EA80EC80C4
:40334000EE800004018005100710082009040A020E041004120213081404170919801B401C041D101F10220225042710282029802C042F12300432053313371838083B206F
:403380003E0442084688480159405A405E68674074017680800887409008920E972098209B089D909F10A740B208C065C247C477CA7ACC67CE46D0A4D208D670D880E82061
:4033C00002010A010C0818042C0230013202340436083E01404245EC4702481349FF4AFF4BFF4D834E034F0150185401560458045A045B045C035D115F0160406240644061
:403400006540668068806A806C806E80840199019C02A902B002B302B401B701BE11BF44D804D904DB04DF0103100688070108800C10174019111D401E6822442808332035
:4034400046884D044F01560859115A885D045E405F01678087418F7098989A809D409E08A614A880B010C0D4C241C480CA04CC04D0A0D6DFD880E010E440E8206B206E802C
:4034800071208320DAC0DC20E2800104A520A640C0100580074009400B200F2883048640A520A640B104C0A0C2F0E420E64085608D808F109980A140A310A520AB40B3104F
:4034C000E040E210EC800D01C2040140B101C002EA0491408D409140E202010A1002120A04000F403B300F402D310F4055320F403A330F405E340F403F350F4034360F40A2
:403500002A370F4007400F4004410F400E420F400C430F4002440F4004450F4001460F4003470F4003600F40030405060708090A0B0C0E0F101112131415161718191B1CFA
:403540001D1E1F2021222325262728292A2B2E2F30313233343500000000000008008800000000000100000008008800000000000200000008008800000000000300000011
:40358000080088000000000004000000080088000000000005000000080088000000000006000000080088000000000007000000080088000000000000000000A8008000FD
:4035C000FFFFFFFF0000000001000000A8008000FFFFFFFF0000000002000000A8008000FFFFFFFF0000000003000000A8008000FFFFFFFF00000000040000000000000059
:403600000000000000000000050000000000000000000000000000000600000000000000000000000000000007000000000000000000000000000000080000000000000070
:403640000000000000000000090000000000000000000000000000000A0000000000000000000000000000000B0000000000000000000000000000000C0000000000000020
:4036800000000000000000000D0000000000000000000000000000000E0000000000000000000000000000000F0000000000000000000000000000004300232D302B2000D2
:4036C000686C4C006566674546470030313233343536373839414243444546003031323334353637383961626364656600000000F8B5C046F8BC08BC9E46704709030000D0
:40370000A10F0000F8B5C046F8BC08BC9E467047E102000028370000C000002098000000380200000000000000000000FF7F000001000000F4010000FFFF000090030020FA
:40374000010000000000204E409C000028000000005A6202F0000000040404000000000000000000000000000000000000000000000000000000000000000000B83600002E
:40378000000000000000000000000000000000000000000000000000000000000000000000000000000000000000000000000000000000000000000000000000F4000020F5
:4037C00000000000000000000000000000000000000000000000000000000000000000000000000000000000000000000000000000000000000000000000000000000000C9
:403800000000000000000000000000000000000000000000000000000000000000000000000000000000000000000000000000000000000000000000000000000000000088
:403840000000000000000000000000000000000000000000000000000000000000000000000000000000000000000000000000000000000000000000000000000000000048
:403880000000000000000000000000000000000000000000000000000000000000000000000000000000000000000000000000000000000000000000000000000000000008
:020000040003F7
:0200000490303A
:0200000048CEE8
:0200000490402A
:4000000000000000000000000000000000000000000000000000000000000000000000000000000000000000000000000000000000000000000000000000000000000000C0
:400040000000000000000000000000000000000000000000000000000000000000000000000000000000000000000000000000000000000000000000000000000000000080
:0200000490501A
:0C0000000002101111A0000110235A6E24
:0200000490600A
:0100000001FE
:00000001FF