:4000000000800020110000001D0F00001D0F000010B500F0A3FFC04610B512222D4B1A6001F0CAFA2C4802F0C7F9302001F0DCF901F04EF9294A2A4B1A600024294B1C60D0
:40004000294B2A4A1A602A492A4A11602A4A1A6080214900294A1160294A1A60C0218900284A1160284A1A6088214901274A1160274A1A60E8214901264A1160264A1A6006
:40008000D0214902254A1160254A1A6082221206244B1A608022D202234B1A60C022234B1A607F3A224B1A600132224B1A600132214B1A600132214B1A600132204B1A606A
:4000C0002049082001F0B4F8082001F09BF81E4B1C6010BD30001040001BB7000600008004010B40000301400000014040FF008000FF520700050140C0FF008004030140E3
:4001000041FF00800803014042FF00800C03014043FF00801003014044FF00801403014045FF008008010B4000010B4058010140500101402C010140280101400C010140BB
:4001400008010140A51600000C020B4010B572B601223D4B1A7000240FE03C486200131959000B00411889881A5AC31858880004104300F09FFE0134E4B2012CEDD93349BF
:400180000C313348703000F07BFE9922314B1A60314A324B1A60EE221202314B1A60AA22304B1A6099231B042F4A13602F4A13602F4A13602F4A13602F4A13602F4A13601D
:4001C0002F4A304B1A6007232F4A13602F4A13602F490B783C22934314221343DBB20B702C4A117816230B43DBB213704D222A4B1A602A4A2A4B1A602A4B16221A602A4ADA
:400200002A4B1A6082222A4B1A60673A294B1A60294A2A4B1A600823294A1360022229490A6029482949086029490A6029492A4A11602A4A13608022D200294B1A60FFF77D
:40024000EBFE00F04DFE10BD1C700F40CC300000CC34000000010240EE00080000020240000302400004024000500F4010500F4020500F4040500F4050500F4070500F40C4
:4002800004040484D8360F402000104000800F4001700F4000700F4000000440820408000800044000010440B1A00400080104401801044000020440A461DB0008020440BD
:4002C0001802044000030440961D040008030440000404403100030008040440000504400805044010B5064C2378002B07D1054B002B02D0044800E000BF0123237010BD7C
:40030000580100200000000098300000084B10B5002B03D00749084800E000BF07480368002B00D110BD064B002BFBD09847F9E7000000005C01002098300000C000002079
:400340000000000010B501F08BFE114A137801331370104B1A7801321A705A7801325A709A7801329A70DA780132D2B2DA70012A04D90022DA70084800F078FC044B1B787C
:40038000132B04D900220021002000F0F9F910BDA8010020740100208002002070B500F01BFA04000B4B1D7901F07EFA02002900200000F0E5F901F077FA03230340064C57
:4003C00001220221200000F0E1FB200000F056FA70BDC046740100208002002070B562B601F068FA01F026FE0E4C607101F086FD62790D4D0D49280002F02AFA280001F0DB
:400400000DFE6179042000F0EDF901F06DFE01F0D9FE01F039FA064801F0C6F9054801F031FF70BD740100201C0200209C3000009D0300004503000070B5FFF7CFFF00F09C
:4004400069F9022828D004D800280AD0012817D027E003281CD0FF2823D1FD3800F04EF9EDE7114B06229C5E1D7901F01DFA02002900200000F084F9022000F03FF9DEE7AE
:40048000094B986800F0FCF8022000F037F9D6E7022000F033F9D2E70449054800F0F8FBCDE700F021F9CAE774010020800200208C02002010B582B0040000F001FB0190C5
:4004C000019B002B04D10022034B1A70E07800E0024802B010BDC04674010020FFFF000010B50022024B9A70002001F057FF10BD74010020024B00221A605A607047C04665
:40050000840100200022014B1A727047840100200122014B1A72704784010020014B187A7047C04684010020014BD8607047C04684010020014B18617047C046840100201C
:40054000014B58617047C04684010020014B98617047C04684010020014B18607047C046C4000020014B18687047C046C400002010B5034B04241C5701F0D6FD604310BDB9
:40058000C400002010B500220021002000F0F8F8FFF7B0FFFFF7B6FFFFF7EAFF014B586010BDC046840100200122014B1A717047C4000020FF22014B1A717047C40000207C
:4005C00010B5064B9869002807D0FFF7D1FF044B5843024B996902F011F810BD84010020407E050010B5034B9B695843024902F005F810BD84010020407E0500F0B583B0BD
:400600000500FFF78BFF002830D0FFF7B1FF0190019C2C1B631D0A2B2AD9174B1A68A2181A60164B9B689A4201DD134A13605B42114A1268934201DD0F4A13600E4D6B6815
:40064000E71AE86860430A2101F0D8FF060028692B6858430A2101F0D1FF3618686978430A2101F0CBFF6C60301802E0002000E0002003B0F0BDC04684010020C40000201D
:4006800070B5FFF7AFFFFFF7B9FF0400144BD861FFF768FF0500844209DD124B1C7801F003F9020028B2210000F06AF816E043429C420ADA0B4B1C7801F0F6F802006D4235
:4006C00028B2210000F05CF808E0064B1D7801F0EBF8020020B2290000F052F870BDC046840100207801002010B5FFF703FF024BFF221A705A7010BDD0000020014B587021
:400700007047C046D0000020014B18707047C046D0000020014B58787047C046D0000020014B18787047C046D0000020024A117804230B4313707047A6010020024A117819
:4007400002230B4313707047A6010020024A117801230B4313707047A6010020024A117808230B4313707047A6010020034B18780F3843425841C0B27047C046A601002035
:4007800010B504000020134B1870002C0CDAD30701D5002908D0002000F0D6FF0D4B5C60604201F01FF814E0002C0CDD930701D5002908D0012000F0C7FF064B5C60200086
:4007C00001F010F805E00022024B5A60002001F009F810BDA8010020014B0420185E7047A8010020F8B504000D0001F0ABFA0F2020401A4E30603F212940194B1960194CFE
:4008000000252570800108434005E060164FA760164B1B686360200001F05EF901232370E560A760124B1B686360200001F054F9022323703368DB06FC22D2041343E3606D
:40084000A7600C4B1B686360200001F045F901F03FF809491C2000F0EBFCF8BD98020020AC0200209C020020FFFF1F80A0002E40C0002E40E0002E406D09000010B586B065
:40088000002815D0038802AC02930023237163718278A271E3716B460593C11C0822684601F0C4FF200001F063FA002802D102E0022000E0012006B010BDC046014B1878EC
:4008C0007047C046AC020020014B18787047C04698020020104B1878C0B2002819D15A78D2B29B78DBB29A4205D20B4A93785078181AC0B20EE0084B5A78D2B29B78DBB2FF
:400900009A4207D9044A93785078181A1030C0B200E010207047C046B0010020124A93780133DBB293709378DBB20F2B02D900220D4B9A700C4B1B78002B0BD00A4A5378ED
:400940000133DBB253705378DBB20F2B02D90022054B5A70044A537891785B1A59424B41DBB213707047C046B001002070B580225201444B1A60444B1B68DA0706D49A075D
:4009800006D45A0706D41B0706D406E0002404E0012402E0022400E003243C4B9A78D2B264013B4B9C4664442368DB0202D46168490D02E06168C90889B2364B50008218F3
:4009C0009000C152314A9178C9B22068000C0F2528404D0069188D005D19A8709178C9B2A5682D0E4800411888001818C5709178C9B2A068000CC0B24D0069188D005D1907
:400A000028719178C9B2A068000AC0B24D0069188D005D1968719178C9B2A568EDB2480041188800181885719178C9B2E5682D0E4800411888001818C5719178C9B2E06885
:400A4000000CC0B24D0069188D005D1928729178C9B2E068000AC0B24D0069188D005D1968729278D2B2E068C0B251008A1891005B189872FFF752FF226801231343236083
:400A800070BDC04600002E4008002E40B0010020A0002E40B002002010B5FFF71BFF00280BD0064A53780133DBB253705378DBB20F2B02D90022014B5A7010BDB0010020B4
:400AC00010B582B0041E17D0FFF704FF6B46D87107331B78002B11D00A4B5B78DBB25A00D3189900084B59180C22200001F09EFEFFF7D2FF002002E0022000E0022002B059
:400B000010BDC046B0010020B002002070B504001E00012000F062F820800823A370E51CF621280000F068F82418E670421C0499280000F06DF870BD0079704710B50330C0
:400B40000222012100F070F800B210BD10B503300522012100F068F810BDC04610B503300522012100F060F810BDC04610B503300522012100F058F810BDC04610B503304C
:400B80000522012100F050F810BDC04670B504001D00002000F022F820800423A370E01C092100F029F82418E57070BD10B503300422012100F038F810BDC04603790220D1
:400BC00018407047037901201840704710B503300222012100F028F880B210BD80028023DB0018408901403B194001433F200240114308007047C04610B504000170FFF709
:400C000063FE6070FFF75AFEA070032010BDC04610B50B0E8354531C0C14C454931C0C12C4540332815410BD70B50600002A09DD002909DB521A0132042A00DD0422002AD5
:400C400005DC03E0042202E0042200E000220024002007E06318F55C531E1B1BDB009D4028430134A242F5DC70BDC04610B582B00400FFF7A5FC00900423012202212000F3
:400C8000FFF744FF2000FFF7F9FD02B010BDC04670B505000E00FFF70DFC0400072868D00CD8042870D004D8002818D0032837D0C7E0052847D0062850D0C2E00D2800D179
:400CC000AAE005D80A2879D00C2800D181E0B8E0F02800D1A9E0F52800D1AEE0B1E02800FFF72AFF00280AD100220021FFF748FD0020FFF709FD0220FFF700FDB9E02800DB
:400D0000FFF71AFF012808D1FFF73CFC0120FFF7FBFC0220FFF7F2FCABE0FFF7E5FCA8E0FFF7FEFC002807D1FFF7E8FC2800FFF705FF504B18809CE00320FFF7DFFC0120C6
:400D4000FFF7CEFB95E02800FFF708FFFFF7ECFBFFF7ECFC0220FFF7D1FC8AE02800FFF705FFFFF7E7FBFFF7E9FC0220FFF7C6FC7FE02800FFF702FFFFF7E2FBFFF7E6FC38
:400D80000220FFF7BBFC74E0FFF7CAFC01280ED1FFF7ECFC00280AD0FFF7BAFB2800FFF7D5FE354B18600120FFF7A8FC61E00320FFF7A4FC0120FFF793FB5AE02800FFF726
:400DC000F5FEFFF7C3FBFFF7C9FC0220FFF796FC4FE0FFF7A5FC012808D1002200210020FFF7CEFCFFF786FBFFF78CFB2800FFF7E9FE002802D0002001F0ACF92800FFF735
:400E0000DDFE002802D0FFF7D5FB01E0FFF7CCFB0220FFF773FC2CE02800FFF7D7FEFFF79BFB0220FFF76AFC23E0002200210020FFF7A6FCFFF758FC1BE03000FFF716FF6B
:400E400017E0FFF76DFC012802D1FFF757FC0AE0FFF766FC002803D10230FFF74FFC02E00220FFF74BFC054B9C4202D00020FFF737FB70BD7A0100207C010020FFFF00003A
:400E8000F0B50025002711E0BB00C658F3B2FF22964308E06A008A181478A419527822700135013BDBB2002BF4D101370F2FEBD9F0BDC04610B50A00002101F0C0FC10BDF9
:400EC000064B1B68002803D080221206134301E05B005B08014A13607047C04680033A4010B50323084A1360084A136080221206074B1A600822074B1A600022064B1A601E
:400F00000120FFF7DDFF10BD300030403000314000003A4000033A40000E3F4010B501F059FC03680C2B00D1FEE7FEE710B50300084A1068C318084A9A1A802A02DC054A9A
:400F4000136005E001F046FC0C2303600120404210BDC046D40000209003002070B50F4E0F4D13E029686B68AC68002202E001C901C30432A242FAD1E868002202E0002102
:400F800002C304328242FAD11035013E002EE9D101F026FCFFF750FAFEE7C046010000006837000010B50E4A136801218B43136000230AE0032B03D89A000A49505800E0D7
:400FC00009489900094A885001332F2BF2D9FFF7BDF8034A116801230B43136010BDC04600001040000000001D0F000000000020074B1B78272B05D8064B1B78DBB2064AE9
:40100000136004E0054B1B78DBB2034A1360704702F3FF0F42F3FF0F20FF0B40C1F1FF0F00230AE0204A12683F210A401F49C95C8A4201D1033303E001332D2BF2D90323A6
:401040001B4A12781B2A16D8302B05D1194B1B78DBB2194A136006E0182B04D1174B1B78DBB2154A136016490B681F229343173A13430B6016E0302B05D1124B1B78DBB2D2
:401080000D4A136006E0182B04D10F4B1B78DBB2094A13600A4A13681F218B430B4909780B4313607047C0462CFF0B407C35000002F3FF0F3FF3FF0F28FF0B403EF3FF0FDD
:4010C00034FF0B40C3F1FF0FC2F1FF0FC0F1FF0F00230AE00D4A12683F210A400C49C95C8A4201D1033303E001332D2BF2D9032308490868084A02400A60084A9446634468
:401100001B78DBB2064A13607047C0462CFF0B407C35000000002240FFFFFFBF4DF3FF0F28FF0B40034B18688023DB05184000D0012070470000224010B50B4A13680121A0
:401140008B431360094B1A68094B1A60094A12685A60FFF765FFFFF74BFF074A116802230B43136010BDC04650000C4034FF0B40B401002020FF0B4024002C4030B50023F5
:401180000AE0134A12683F210A401249C95C8A4201D1033303E001332D2BF2D903230E490A68022082430A600C4C21681F2291430B4805682A400A4322604168094A11609A
:4011C000094A944663441B78DBB2084A136030BD2CFF0B407C35000024002C4034FF0B40B401002020FF0B404DF3FF0F28FF0B40034B1B680220184000D001207047C0461C
:4012000024002C401F2318401E3B8340014A13607047C04600E100E01F2318401E3B8340014A13607047C04680E100E001BE704770B504000D001F2802D90020FFF7F6FFE1
:401240001034A40080239B059C4664442068256070BDC04670B504000E00032902D90020FFF7E4FF1F2C02D90020FFF7DFFF03252540ED00063501F0A8F8A408A400074B40
:401280009C46644421680323AB4099430B003100A9401943216001F09CF870BD00E400E010B5040006E0084B586801F085F8074B9C46644480231B029C42F4D8024B9868F3
:4012C000604301F079F810BDD80000200080FFFF70B582B000F090F9002862D001F075F80500314A116801230B43136000230AE02E4A12683F210A402D49C95C8A4201D15E
:40130000033303E001332D2BF2D903230021294A1160294A1268D20606D1274802681F318A4313390A430260244C2168244A1140244A5A438023DB019C466244D20B013AA3
:401340005205520D0B001343A0225203134323601D4B1B680193302001F03EF81B4A13688021C9050B4313602668194B1E40002407E00120FFF794FF1034A30533430F4AA0
:401380001360EE2CF5D90120FFF78AFFFF239B051E430A4B1E60019A0B4B1A60280001F018F802B070BDC04650000C402CFF0B407C35000028FF0B4034FF0B4008002240A6
:4013C00000F800C040420F003000104000002240FFFF3FC010B5034B1B7B584300F0ECFF10BDC046D8000020F0B55F4656464D464446F0B483B0040000F0E7FF0190FFF7A0
:4014000091FE002804D0FFF763FE01239A4601E000239A46FFF7ECFE002808D0182C01D0302C07D1FFF7AAFE01239B4604E000239B4601E000239B46E61E2D2E74D8464B0D
:401440001B78DBB29C4208D8444B1B78DBB29946434B1B78DBB2984631E0424B1B78DBB29C4208D8404B1B78DBB299463F4B1B78DBB2984623E03E4B1B78DBB29C4208D87C
:401480003C4B1B78DBB299463B4B1B78DBB2984615E03A4B1B78DBB29C4208D8384B1B78DBB29946374B1B78DBB2984607E0364B1B78DBB29946354B1B78DBB29846344B64
:4014C0009F5D2F2F09D92A2C07D91922314B1A60052000F071FF192503E02E4B1D683F231D40BD4206D92A4B9A5D2A4B1A60052000F062FF254B9C4664442378DBB2264AA5
:401500001360264B4A461A60254B42461A600520FFF760FFBD420AD21D4B9A5D1D4B1A60052000F049FF02E00020FFF77FFE5346012B01D1FFF7CCFE5B46012B01D1FFF7F7
:40154000FBFD019800F045FF03B03CBC90469946A246AB46F0BDC04640F3FF0F41F3FF0F42F3FF0F43F3FF0F44F3FF0F45F3FF0F46F3FF0F47F3FF0F48F3FF0F49F3FF0F03
:401580004AF3FF0F4BF3FF0F4CF3FF0F4DF3FF0F7C3500002CFF0B4028FF0B401CFF0B4020FF0B40034B1868C0231B02184000D00120704700010B4010B50D4B1A680121B5
:4015C0008A431A601A68022082431A60094A10683024A043203C204310601068093CA043014311601A68802109060A431A6010BD00002240000F2240034B1B68002B01DACB
:40160000012000E0002070470000224010B500F0DCFE044A1368C02109020B43136000F0D8FE10BD00010B4010B500F0CEFE08490A68084B1A408024E40122430A600A68D1
:4016400013408022120213430B6000F0C2FE10BD00010B40FF3FFFFF70B5050000F0B5FE0400FFF79FFF002803D0FFF7DDFF012100E0002108482840084A1568084B2B4001
:40168000184310601368012901D1FFF7BFFF200000F09FFE70BDC0460404040010020B40FBFBFBFF10B5244B1B685B0715D5234B5B685B070ED5224B596A042001401F4C82
:4016C00062688A4362605A6A82435A629B69002B00D098470420FFF7BFFF174B1B685B0518D5164B5B685B0510D5154B596A8022D2001140114842688A434260596A114A83
:401700000A405A62DB69002B00D098478020C000FFF7A2FF084B1B685B030CD5074B5B685B0304D5064B1B6A002B00D098478020C002FFF791FF10BD10020B40EC0000205F
:40174000D4010020FFFBFFFF04490A68D2B204239A438000184010430860704700020440014B58647047C0460000002010B5040000F02BFE044A1168044B0B40A4031C4377
:40178000146000F026FE10BD00E400E0FF3FFFFF0222014B1A60704700E100E00222014B1A60704780E100E010B50400FFF7F6FF2000FFF7D5FF0320FFF7D8FFFFF7E8FF25
:4017C00010BDC0460004000C014B18607047C046080120400004000C014B18607047C046140120400004000C014B18607047C0460C01204070B504000D0000F0E6FDAC4023
:40180000024B1C6000F0E5FD70BDC0460800204010B500F0DAFD064A116801230B43136000F0D7FD18210120FFF7E4FF10BDC04600002040014B18607047C04638012040F4
:4018400010B50D4C8023DB042360236823600020FFF7B8FF236823600C22084B1A600120FFF7E8FF3122064B1A600648FFF7B2FF0020FFF7B7FF10BD0001204024012040D1
:4018800028012040FF7F000010B5064B1B78002B04D1FFF7D5FF0122024B1A70FFF7B8FF10BDC046FC010020014B1878C0B2704760000F4010B500F088FD044A117810231F
:4018C0000B43DBB2137000F084FD10BD90000F40054B1A6801210A431A601B68194201D1012000E00020704704002E4010B50E4A0E4B1A60FFF7ECFF1C20FFF783FC0C4AE0
:40190000116801230B43136090235B0100E0013B002B03D0064A1268D207F8D5002B01D1012000E0002010BD0110000000002E4010002E4003B2002B0DDB094A1168094BE0
:401940000B400004034313601268074B1340984203D0012002E0022000E000207047C04614002E40FFFF00800000FF7F002809D10C4B19680C4A0A401A601B68DB040CD5FC
:4019800001300DE0074B1A68802149010A431A601B680B4203D1012002E0002000E000207047C04614002E40FFEFFFFF70B5841EE4B20D2C35D88C1EE4B2052C03D9002B76
:4019C00031D1012931D1032A31D8904231D3914231D31C4D2C68240AE4B20F26B44320432E68194C3440000204432C602C686040F0242401204220D1002B00D00223490118
:401A0000C9B29200D2B2114319430E4A1368EE2083430B4313601368034099420FD0ED380EE002200CE002200AE0022008E0022006E0022004E0022002E0012000E000201B
:401A400070BDC04614002E40FFF0FFFF002809D10B4B1A6810218A431A601B6819420BD001300CE0064B1A6810210A431A601B68194203D1012002E0002000E00020704745
:401A800014002E40002809D10B4B1A6801218A431A601B6819420BD001300CE0064B1A6801210A431A601B68194203D1012002E0002000E00020704714002E40054B1860F9
:401AC0001B681B041B0C984201D0012000E000207047C04604002E4010B503785B01204A944663441F4A41680A431A6003785B01634419681C4A11401C4A446822409142C5
:401B000024D182681A6103785B0163441A6981688A421DD1C2685A6103785B0163445A69C1688A4216D1012252429A6103785B0163449A6901320FD10022DA6103785B012B
:401B40006344DB69002B09D0012008E0012006E0012004E0012002E0012000E0002010BDA0002E40800080007F007F007FFF7FFF10B503781B01104A944663440F4A41682F
:401B80000A431A6003781B01634419680C4A11400C4A4468224091420AD182685A6003781B0163445A6883689A4203D0012002E0012000E0002010BD20002E4008008000A1
:401BC000F7007F00F7FF7FFF70B500240AE063001B199800104B1818FFF7CAFF002805D10134E4B2072CF2D9002500E00125002D0BD00FE0230108486030C018FFF76CFF29
:401C0000002806D10134E4B200E000240F2CF1D900E00125280070BDAC350000002809D10C4B19680C4A0A401A601B689B040CD501300DE0074B1A68802189010A431A60BA
:401C40001B680B4203D1012002E0002000E000207047C04614002E40FFDFFFFF10B580221206344B1A60344A136801218B431360F0231B0200E0013B002B03D02E4A126872
:401C8000D207F8D4002B4AD01C20FFF7C5FA2B491C20FFF7CDFA03211C20FFF7DBFA1F20FFF748FE00281AD1FFF760FE002818D1FFF7B4FF002816D1002301220121083066
:401CC000FFF774FE002810D10130FFF7BFFE00280DD1FFF7D7FE00280BD001230AE0012308E0012306E0012304E0012302E0012300E00023002B14D1FFF766FF002812D1EC
:401D00000F48FFF7DBFE00280FD10B4B1A6807218A431A601B68194209D0013008E0012006E0012004E0012002E0012000E0002010BDC04600042E4010002E406D1D0000E1
:401D40000110000010B5084B1B78002B02D1FFF785FF00E00020002804D10122024B1A70FFF7C4FD10BDC046FD0100207047C046F8B54F464646C0B404000120002398466B
:401D800091E04C4B1B6832041A427AD12379002B01D1002701E08027BF036379002B07D12B01454A94466344226852055A6009E080235B031F432B013F4A944663442268EF
:401DC000D2005A60A379072B03D81B041F43B94603E080231B031F43B946E379002B03D004234A461A43914600232AE0032B13D92801324A94466044026894465907CA1A72
:401E0000D1003831FF228A4067469743E268D25C8A403A43026012E02801274A94466044826894465907CA1AD1001831FF228A4067469743E268D25C8A403A438260013362
:401E4000DBB2A279934201D2072BCFD91C20FFF7E3F92B01184A94466344194A4F4617431F60227A002A04D0196803220A431A6003E0196801220A431A601C20FFF7C2F908
:401E800000207600F6B2002807D00135EDB201E001260025072D00D873E7002806D043460133DBB298464346022BF1D90CBC90469946F8BD08002E4020002E402C002E4007
:401EC0000800800010B50920FFF79CF910BDC04610B500F091F810BD10B500F01FF810BD10B5054A1368802109060B431360FFF7E9FFFFF7EDFF10BD0000244010B5064B63
:401F00001B78002B04D1FFF7E7FF0122024B1A70FFF7E6FF10BDC0460002002070B51E4A1E4B1A6000241E4B1C601E4A1E4B1A601E4B1F4A136007211E4A11601E4A146082
:401F400006391E4A11601E4A13601E4B1C6004251D4B1D600920FFF75FF903210920FFF779F91A490920FFF763F9194B1C60194B1C60194B1C60194B1C60194B1D60194BAC
:401F80001C601A68184B1A80184B1C60184B1C60184B1C7070BDC0460B000002000024404000244001000A0048002440070000800003244004032440100324404400244002
:401FC00000022440040224405000244071240000880E2440C80E2440480F2440080F2440C80F2440880F24400802002088030020700300208503002005490B68F02293436F
:40200000603A13430B60034B1A88034B1A6070470001024008020020880F244070B50500002402E000F016FA0134285D0028F9D170BDC046014B1878C0B2704761000F40AA
:40204000034A117880235B420B43DBB21370704772000F40014B18707047C04682000F40014B1878C0B2704762000F4010B50100014800F0DBF910BD23000F4010B502483B
:4020800000F0DEF910BDC04643000F4010B50100014800F0CBF910BD03000F4010B501E0FFF7ECFFFFF7DCFF0307F9D410BDC04610B50B4C2000FFF7D9FF2000FFF7E6FF0B
:4020C00000F083F9074A117810230B43DBB2137000F07FF9FFF7E2FF0120FFF7BBFF10BD3F420F0092000F4010B5064B1B78002B04D1FFF7DDFF0122024B1A70FFF7A0FFB1
:4021000010BDC0460A02002010B50020FFF784F804490020FFF78CF803210020FFF79AF810BDC046F921000010B50020FFF774F800F0D2F8054B9C46604400B2044B1C684D
:4021400004190020FFF75EF8200010BD0080FFFF0C02002010B504000020FFF75DF88020000200F0B3F8034B1C600020FFF74AF810BDC0460C020020024B18780F23184042
:402180007047C04664000F4007231843C0B2014B1870704784000F4010B50F20FFF7F4FFFFF7EAFF00F011F9054A117810230B43DBB2137000F00DF90020FFF723F810BD47
:4021C00094000F4010B500F0D9F88020000200F07DF80022064B1A60064B1B78002B04D1FFF792FF0122034B1A70FFF7D5FF10BD0C0200200B0200200C4B1B78DBB2DA07D2
:4022000006D50B490A680B48844662440A6007E09A0705D506490A680748844662440A605B0702D50022024B1A60704764000F400C020020FF7F00000080FFFF014B986486
:402240007047C0460000002010B5040000F0BDF8044A1168044B0B40A4051C43146000F0B8F810BD00E400E0FFFF3FFF0422014B1A60704700E100E00422014B1A607047C2
:4022800080E100E010B50400FFF7F6FF2000FFF7D5FF0320FFF7D8FFFFF7E8FF10BDC046034A117880235B420B43DBB21370704776000F40014B18707047C04687000F4048
:4022C000014B1878C0B2704767000F40014B18807047C0460C100F40024B1B78024B188880B2704706000F408C100F40014B188880B270478C100F40014B18807047C046C0
:402300004C100F40014B18807047C0466C100F4010B501E0FFF7EAFFFFF7D2FF4306F9D410BDC04610B5134B1A7807218A431A701A7804398A431A70FFF7EAFF802424024E
:402340002000FFF7D9FF2000FFF7C0FF0020FFF7B1FFFFF7B5FF2000FFF7D4FF00F035F8054A117810230B43DBB2137000F031F810BDC04676000F4097000F4010B5064B0E
:402380001B78002B04D1FFF7CDFF0122024B1A70FFF786FF10BDC0461002002004490A68D2B240239A438001184010430860704700020440000000000230800803D0013874
:4023C000FDD1C046C046C0467047EFF3108072B6704780F31088704770B50400FFF7F5FF0500102C05D8104A136803218B43136016E0202C07D80C490B6803229343023AA8
:4024000013430B600CE0302C07D807490B6803229343013A13430B6002E00020FEF706FF2800FFF7D6FF70BD30001040CBB203700B0ADBB24370090CC9B281707047C046DB
:402440000378427812021A4383781B041A4310007047C046044B1B681F221340082BF9D0024B18607047C046080224404002244010B5144B1B68002B00D09847124B1B6819
:402480005B071DD5114B1B680133112B00D100230F4A1268934205D10E4B1B6820220E4B1A7006E00B4A1268D2B20C49CA54074A13600B4B1B68DB06E4D10422094B1A6033
:4024C00010BDC04604020020CC0F2440880300207003002040032440850300207403002008032440C00F2440002243088B4274D303098B425FD3030A8B4244D3030B8B4286
:4025000028D3030C8B420DD3FF22090212BA030C8B4202D31212090265D0030B8B4219D300E0090AC30B8B4201D3CB03C01A5241830B8B4201D38B03C01A5241430B8B422E
:4025400001D34B03C01A5241030B8B4201D30B03C01A5241C30A8B4201D3CB02C01A5241830A8B4201D38B02C01A5241430A8B4201D34B02C01A5241030A8B4201D30B026F
:40258000C01A5241CDD2C3098B4201D3CB01C01A524183098B4201D38B01C01A524143098B4201D34B01C01A524103098B4201D30B01C01A5241C3088B4201D3CB00C01A66
:4025C000524183088B4201D38B00C01A524143088B4201D34B00C01A5241411A00D20146524110467047FFE701B5002000F0F0F802BDC0460029F7D076E7704703460B4378
:402600007FD4002243088B4274D303098B425FD3030A8B4244D3030B8B4228D3030C8B420DD3FF22090212BA030C8B4202D31212090265D0030B8B4219D300E0090AC30BA3
:402640008B4201D3CB03C01A5241830B8B4201D38B03C01A5241430B8B4201D34B03C01A5241030B8B4201D30B03C01A5241C30A8B4201D3CB02C01A5241830A8B4201D3AA
:402680008B02C01A5241430A8B4201D34B02C01A5241030A8B4201D30B02C01A5241CDD2C3098B4201D3CB01C01A524183098B4201D38B01C01A524143098B4201D34B01AC
:4026C000C01A524103098B4201D30B01C01A5241C3088B4201D3CB00C01A524183088B4201D38B00C01A524143088B4201D34B00C01A5241411A00D20146524110467047C7
:402700005DE0CA0F00D04942031000D34042534000229C4603098B422DD3030A8B4212D3FC22890112BA030A8B420CD3890192118B4208D3890192118B4204D389013AD02A
:40274000921100E08909C3098B4201D3CB01C01A524183098B4201D38B01C01A524143098B4201D34B01C01A524103098B4201D30B01C01A5241C3088B4201D3CB00C01A9B
:40278000524183088B4201D38B00C01A5241D9D243088B4201D34B00C01A5241411A00D20146634652415B10104601D34042002B00D54942704763465B1000D3404201B5EB
:4027C000002000F005F802BD0029F8D016E770477047C046014B18687047C046540100200E4B70B500251E000D4CE41AA410A54204D0AB00F35898470135F8E700F0A2FFAB
:40280000084B00251E00084CE41AA410A54204D0AB00F35898470135F8E770BD50370000503700005037000058370000002310B59A4203D0CC5CC4540133F9E710BD03004B
:402840008218934202D019700133FAE7704700000EB410B59DB002A9029008610B48822488604861012040421FABC881084804CBA400006801938C8100F06EF80023029A27
:4028800013701DB010BC08BC03B01847FFFFFF7F54010020F0B58E6885B007000C00039201939E4243D890238A89DB001A423ED003250969236801985B1A029363695D43EF
:4028C000EB0F5D19029B6D1001331B18AB4200D91D00530510D52900380000F037FB061E14D0029A2169FFF7A1FFA289194B134080221343A38112E02A00380000F086FBBD
:40290000061E0CD12169380000F0D4FA0C23402201203B60A38940421343A38117E0029B2661F61826606561019EED1AA560019BB34200D21E0032000399206800F0A5FA1B
:402940000020A3689B1BA36023689E19266005B0F0BDC0467FFBFFFFF0B59FB0029005938B890F0016001B0610D50B69002B0DD1402100F0EBFA38603861002804D10C235E
:40298000029A01381360D8E040237B61002306AD6B6120336B761033AB7634002378002B03D1A31B049312D003E0252BF9D00134F4E7A31B320039000298FFF76BFF431C0B
:4029C00000D1B4E06A69049B944663446B612378002B00D1ABE00122002352426A6002A95432521801342B60EB60AB601370AB65534E21780522300000F03CFA002807D0F3
:402A00000123801B83402A68013413432B60EFE72B68DA0604D55322202102A8121811701A0704D553222B2102A81218117022782A2A03D0099B00200A210EE0059A111DC4
:402A400012680591002A01DB099204E05242EA60022213432B6001340BE02278303A092A04D84B4301349B180120F6E7002800D0099323782E2B1ED163782A2B0AD1059B15
:402A800002341A1D1B680592002B01DA01235B42079310E000230A201A0001346B6021783039092904D84243013452180123F6E7002B00D00792234E21780322300000F0BF
:402AC000D9F9002806D04023801B83402A68013413432B60217806221B48661C297600F0C9F9002812D0194B002B06D10722059B073393430833059314E005AB00933A0019
:402B0000134B2900029800E000BF07E005AB00933A000F4B2900029800F08AF80390039B013304D06B69039A9B186B6135E7BB890B985B0601D5012040421FB0F0BDC0465A
:402B40000E37000014370000183700000000000095280000F7B5170001938A680B6900900C00934200DA130022003B6043321278002A01D001333B6023689B0602D53B6872
:402B800002333B60062523681D401ED0230043331B785A1E9341226892061CD53020E1184331087021005A1C45310978A2184332023311700FE0220001231932019900985F
:402BC000089EB047431C0ED00135E3683A689B1A9D42F0DBDAE72200019943320098089DA847431C02D10120404220E006232068E1683A6803400025042B03D18D1AEB43AA
:402C0000DB171D40A3682269934201DD9B1AED180027BD420AD0220001231A3201990098089EB047431CDED00137F2E70020FEBDF0B58BB006920A0043320793059004922C
:402C40000A7E0C00109B6E2A00D1ABE011D8632A22D009D8002A00D1B5E0582A00D0C5E045310A70814A4FE0642A1DD0692A1BD0BCE0732A00D1AAE009D86F2A29D0702ACD
:402C800000D0B3E0202209680A43226037E0752A1FD0782A33D0A9E00E001A684236111D196013683370A4E021681A68080606D4490604D5111D19600023D55E02E0111DE3
:402CC00019601568002D3BDA2D23049A6D42137036E021681A68080606D4490604D51568111D1960ADB202E0111D196015685F4B227E039308276F2A1DD00A271BE02200DF
:402D00007821453211705A4A19680392081D226818600D68100602D4500600D5ADB2D30702D520231A4322601027002D03D1202322689A4322602300002243331A7002E0D8
:402D40000A274A4B03936368A360002B09DB0422216891432160002D05D1049E002B11D07BE0002D79D0049E28003900FFF742FC039B013E5B5C280033703900FFF7B4FB20
:402D8000051EF1D1082F09D12368DB0706D563682269934202DC3023013E3370049B9B1B23612BE009681A68080607D4490605D5111D19601368A28A1A8004E0111D19603B
:402DC000136862691A600023049E236116E01A68111D1960166800216268300000F04AF8002801D0801B6060636803E0260042363270012323610023049A1370079B09AA5D
:402E000000932100069B0598FFF7A4FE431C02D10120404227E02369320006990598079DA847431CF4D0236800259B070FD4099BE068984217DA180015E0220001231932F2
:402E400006990598079EB047431CE1D00135E368099A9B1A9D42F0DBE9E72600039B42361B7833708EE70BB0F0BDC0461F37000030370000C9B28218904204D003788B4202
:402E800002D00130F8E70020704710B5884202D98B18984201D3002305E09B1A013A08D3995C8154FAE7934203D0CC5CC4540133F9E710BD70B50500002944D00C1F23683A
:402EC000002B00DAE418280000F0D8F81E4A13681100002B02D16360146031E0A3420DD92268A018834203D118685B688218226063600C6024E0A24203D813005A68002AB9
:402F0000F9D11E689819A0420BD12168711858181960824214D110685268411819605A600EE0A04202D90C232B6009E021686018824203D1106852684118216062605C60FF
:402F4000280000F09CF870BD18020020032370B5CD1C9D43083506000C2D01D20C2501E0002D01DBA94202D90C23336048E0300000F084F8234B1C681A002100002913D03B
:402F80000B685B1B0DD40B2B02D90B60CC181EE08C4202D1636813601AE04B6863600C0016E00C004968E9E7174C2368002B03D1300000F051F820602900300000F04CF8A8
:402FC000431C18D00323C41C9C43A0420DD12560300000F054F8200007220B30231D9043C31A0ED05A42E2500BE0211A300000F033F8431CEBD10C233000336000F03FF82F
:40300000002070BD1802002014020020F8B506000C001500002904D11100FFF797FF040018E0002A03D1FFF745FF2C0012E000F027F885420ED929003000FFF787FF071E5B
:4030400007D021002A00FFF7F1FB21003000FFF731FF3C002000F8BD002370B5064C050008002360FDF762FF431C03D12368002B00D02B6070BDC0468C03002070477047B1
:403080000B1F1A68101F002A04DA891804390B68D0180438704700000000000044697020416464723A202578200D0A004279746525642025782020200000000049443A25F5
:4030C000782025782025780D0A00000000300F40000800400F4000088007820D840F876F1008200424012C0230083204340236013E01560458045B045C035F018301840184
:4031000087018902A904B302B504B601B701BE40BF54D804D904DB04DF0104040802100112201302184019941E022410264027082F083C023E083F1059945C505E025F08A7
:403140006340822084018740C020C208C40DCA20CEE0D6FED801E202E6010404059E0760080709CF0B301194136015FD1604170218011A021B0F20012202240725732930E2
:403180002A072BC92E0831FF340F3F01528054015604580459045B045C015D105F0184078505870A880C890C8A028B039103930C940C950F960199079A0FA40BA604A90AF2
:4031C000AB05AC08AE01B40FB50FC052C9FFCAFFCBFFCF01D018D804D904DA04DC11DD01DF01E040E240E440E540E680E880EA80EC80EE8001200320050407040A100B08AC
:403200000E1412021308176A19201A041D3021102308274029202F24300432023320340435103602372A39103B083D103E14420848015D015E805F046780740176408740B2
:403240008B1097109E08A240A401A708AB02B002B404C066C266C4F5CA64CCE7CE66D004D208D6D0D880E480EC40EE01041007020A100C0B0E0410101407180C1A011B02DB
:403280002301240825022601280C2A022E0F3101320F341037023E103F40405249FF4AFF4BFF4D834E034F015018540F5604580459045A045B045C115D115F016040624020
:4032C00064406540668068806A806C806E80800E82F0849685018668887F890194A39501965C98C59A3A9D01A201A702A8FEAA01AB01B4FFB703BE10C042C5ECC702C8136B
:40330000C9FFCAFFCBFFCD83CE03CF01D018D804D904DA04DC10DD01DF01E040E240E440E540E680E880EA80EC80EE800080010802040514061007840A640E14111012125D
:403340001520170219201A101F10224223802702284029082F143120378838043A043D103E144208464848014D014F04560859205A805B0563408740912092049501961078
:40338000970C9A409B089D049E089F04A001A120A602A720AF08C077C26EC457CA63CC54CE62D0A4D208D60FD801030108030D081303140618061901230C28052E0831041D
:4033C0003208330134073502370838203F444031410249FF4AFF4BFF4DA04F0150185280580459045A045B045C115D115F016040628064406540668068406A806C406D20A0
:403400006E808103830C84018D0391089901A603B001B104B202B308B502B701B9A0BE01BF44C031C102C504C6C2C73EC83DC9FFCAFFCBFFCDAFCE07CF01D018D40FD80409
:40344000D904DA04DB04DC11DD11DF05E040E280E440E540E680E840EA80EC40ED20EE80010805100E1410201520174019081A401D141F24200421802205245025042620CF
:4034800027012F40311032113620370238823C42401041A045A4482050415108521053405A485B216108621074017B208040832088408F40912092149404962097089B02E5
:4034C0009C409D1CA120A720AC40AD10AF01B520B640C044C260C4C4CA80CCA5CE99D07ED60FD806DE0206016B026E8071208640C080DAC0DC20E64000200B20852088108D
:403500009F02A520B601C040C210E21087029F02AF10E640EC4000880520098081208440C00BC202A980B004EA0409010B088B048D01C20AE209010A100A120204000F40FD
:403540001D300F4020310F404D320F403C330F4060340F403F350F405B360F4043370F4009400F400A410F4005420F4007440F4003450F4006470F4003600F4003040506DB
:403580000708090A0B0C0E0F101112131415161718191B1C1D1E1F2021222325262728292A2B2E2F303132333435000000000000080088000000000001000000080088000C
:4035C00000000000020000000800880000000000030000000800880000000000040000000800880000000000050000000800880000000000060000000800880000000000E7
:4036000007000000080088000000000000000000A8008000FFFFFFFF0000000001000000A8008000FFFFFFFF0000000002000000A8008000FFFFFFFF000000000300000081
:40364000A8008000FFFFFFFF000000000400000000000000000000000000000005000000000000000000000000000000060000000000000000000000000000000700000010
:4036800000000000000000000000000008000000000000000000000000000000090000000000000000000000000000000A0000000000000000000000000000000B000000E4
:4036C0000000000000000000000000000C0000000000000000000000000000000D0000000000000000000000000000000E0000000000000000000000000000000F00000094
:403700000000000000000000000000004300232D302B2000686C4C006566674546470030313233343536373839414243444546003031323334353637383961626364656653
:4037400000000000F8B5C046F8BC08BC9E4670470D030000A50F0000F8B5C046F8BC08BC9E467047E502000078370000C0000020980000003802000000000000FF7F000033
:4037800001000000F4010000FFFF000090030020010000000000C05D80BB000030000000006CDC02F000000004040400000000000000000000000000000000000000000093
:4037C0000000000000000000000000000C37000000000000000000000000000000000000000000000000000000000000000000000000000000000000000000000000000086
:40380000000000000000000000000000F400002000000000000000000000000000000000000000000000000000000000000000000000000000000000000000000000000074
:403840000000000000000000000000000000000000000000000000000000000000000000000000000000000000000000000000000000000000000000000000000000000048
:403880000000000000000000000000000000000000000000000000000000000000000000000000000000000000000000000000000000000000000000000000000000000008
:4038C00000000000000000000000000000000000000000000000000000000000000000000000000000000000000000000000000000000000000000000000000000000000C8
:403900000000000000000000000000000000000000000000000000000000000000000000000000000000000000000000000000000000000000000000000000000000000087
:020000040003F7
:0200000490303A
:020000005E930D
:0200000490402A
:4000000000000000000000000000000000000000000000000000000000000000000000000000000000000000000000000000000000000000000000000000000000000000C0
:400040000000000000000000000000000000000000000000000000000000000000000000000000000000000000000000000000000000000000000000000000000000000080
:0200000490501A
:0C0000000002101111A000011023703349
:0200000490600A
:0100000001FE
:00000001FF